{
  "_format": "hh-sol-artifact-1",
  "contractName": "TixoProtocolV1",
  "sourceName": "contracts/TixoProtocolV1.sol",
  "abi": [
    {
      "inputs": [],
      "stateMutability": "nonpayable",
      "type": "constructor"
    },
    {
      "anonymous": false,
      "inputs": [
        {
          "indexed": true,
          "internalType": "address",
          "name": "owner",
          "type": "address"
        },
        {
          "indexed": true,
          "internalType": "address",
          "name": "approved",
          "type": "address"
        },
        {
          "indexed": true,
          "internalType": "uint256",
          "name": "tokenId",
          "type": "uint256"
        }
      ],
      "name": "Approval",
      "type": "event"
    },
    {
      "anonymous": false,
      "inputs": [
        {
          "indexed": true,
          "internalType": "address",
          "name": "owner",
          "type": "address"
        },
        {
          "indexed": true,
          "internalType": "address",
          "name": "operator",
          "type": "address"
        },
        {
          "indexed": false,
          "internalType": "bool",
          "name": "approved",
          "type": "bool"
        }
      ],
      "name": "ApprovalForAll",
      "type": "event"
    },
    {
      "anonymous": false,
      "inputs": [
        {
          "indexed": false,
          "internalType": "uint256",
          "name": "_fromTokenId",
          "type": "uint256"
        },
        {
          "indexed": false,
          "internalType": "uint256",
          "name": "_toTokenId",
          "type": "uint256"
        }
      ],
      "name": "BatchMetadataUpdate",
      "type": "event"
    },
    {
      "anonymous": false,
      "inputs": [
        {
          "indexed": false,
          "internalType": "string",
          "name": "newURI",
          "type": "string"
        }
      ],
      "name": "CollectionURIUpdated",
      "type": "event"
    },
    {
      "anonymous": false,
      "inputs": [
        {
          "indexed": true,
          "internalType": "uint256",
          "name": "eventId",
          "type": "uint256"
        },
        {
          "indexed": true,
          "internalType": "address",
          "name": "eventOwner",
          "type": "address"
        },
        {
          "indexed": false,
          "internalType": "uint256",
          "name": "ticketPrice",
          "type": "uint256"
        },
        {
          "indexed": false,
          "internalType": "uint256",
          "name": "maxTickets",
          "type": "uint256"
        }
      ],
      "name": "EventCreated",
      "type": "event"
    },
    {
      "anonymous": false,
      "inputs": [
        {
          "indexed": false,
          "internalType": "uint256",
          "name": "_tokenId",
          "type": "uint256"
        }
      ],
      "name": "MetadataUpdate",
      "type": "event"
    },
    {
      "anonymous": false,
      "inputs": [
        {
          "indexed": true,
          "internalType": "address",
          "name": "previousOwner",
          "type": "address"
        },
        {
          "indexed": true,
          "internalType": "address",
          "name": "newOwner",
          "type": "address"
        }
      ],
      "name": "OwnershipTransferred",
      "type": "event"
    },
    {
      "anonymous": false,
      "inputs": [
        {
          "indexed": false,
          "internalType": "uint256",
          "name": "ticketId",
          "type": "uint256"
        },
        {
          "indexed": true,
          "internalType": "address",
          "name": "recipient",
          "type": "address"
        },
        {
          "indexed": true,
          "internalType": "uint256",
          "name": "eventId",
          "type": "uint256"
        }
      ],
      "name": "TicketMinted",
      "type": "event"
    },
    {
      "anonymous": false,
      "inputs": [
        {
          "indexed": true,
          "internalType": "address",
          "name": "from",
          "type": "address"
        },
        {
          "indexed": true,
          "internalType": "address",
          "name": "to",
          "type": "address"
        },
        {
          "indexed": true,
          "internalType": "uint256",
          "name": "tokenId",
          "type": "uint256"
        }
      ],
      "name": "Transfer",
      "type": "event"
    },
    {
      "inputs": [
        {
          "internalType": "address",
          "name": "to",
          "type": "address"
        },
        {
          "internalType": "uint256",
          "name": "tokenId",
          "type": "uint256"
        }
      ],
      "name": "approve",
      "outputs": [],
      "stateMutability": "nonpayable",
      "type": "function"
    },
    {
      "inputs": [
        {
          "internalType": "address",
          "name": "owner",
          "type": "address"
        }
      ],
      "name": "balanceOf",
      "outputs": [
        {
          "internalType": "uint256",
          "name": "",
          "type": "uint256"
        }
      ],
      "stateMutability": "view",
      "type": "function"
    },
    {
      "inputs": [],
      "name": "collectionURI",
      "outputs": [
        {
          "internalType": "string",
          "name": "",
          "type": "string"
        }
      ],
      "stateMutability": "view",
      "type": "function"
    },
    {
      "inputs": [
        {
          "internalType": "uint256",
          "name": "ticketPrice",
          "type": "uint256"
        },
        {
          "internalType": "uint256",
          "name": "maxTickets",
          "type": "uint256"
        }
      ],
      "name": "createEvent",
      "outputs": [
        {
          "internalType": "uint256",
          "name": "",
          "type": "uint256"
        }
      ],
      "stateMutability": "nonpayable",
      "type": "function"
    },
    {
      "inputs": [
        {
          "internalType": "uint256",
          "name": "tokenId",
          "type": "uint256"
        }
      ],
      "name": "getApproved",
      "outputs": [
        {
          "internalType": "address",
          "name": "",
          "type": "address"
        }
      ],
      "stateMutability": "view",
      "type": "function"
    },
    {
      "inputs": [],
      "name": "getCollectionURI",
      "outputs": [
        {
          "internalType": "string",
          "name": "",
          "type": "string"
        }
      ],
      "stateMutability": "view",
      "type": "function"
    },
    {
      "inputs": [
        {
          "internalType": "uint256",
          "name": "eventId",
          "type": "uint256"
        }
      ],
      "name": "getEventOwner",
      "outputs": [
        {
          "internalType": "address",
          "name": "",
          "type": "address"
        }
      ],
      "stateMutability": "view",
      "type": "function"
    },
    {
      "inputs": [],
      "name": "getLastEventId",
      "outputs": [
        {
          "internalType": "uint256",
          "name": "",
          "type": "uint256"
        }
      ],
      "stateMutability": "view",
      "type": "function"
    },
    {
      "inputs": [
        {
          "internalType": "uint256",
          "name": "eventId",
          "type": "uint256"
        }
      ],
      "name": "getLastTicketId",
      "outputs": [
        {
          "internalType": "uint256",
          "name": "",
          "type": "uint256"
        }
      ],
      "stateMutability": "view",
      "type": "function"
    },
    {
      "inputs": [
        {
          "internalType": "uint256",
          "name": "eventId",
          "type": "uint256"
        }
      ],
      "name": "getTicketPrice",
      "outputs": [
        {
          "internalType": "uint256",
          "name": "",
          "type": "uint256"
        }
      ],
      "stateMutability": "view",
      "type": "function"
    },
    {
      "inputs": [
        {
          "internalType": "address",
          "name": "owner",
          "type": "address"
        },
        {
          "internalType": "address",
          "name": "operator",
          "type": "address"
        }
      ],
      "name": "isApprovedForAll",
      "outputs": [
        {
          "internalType": "bool",
          "name": "",
          "type": "bool"
        }
      ],
      "stateMutability": "view",
      "type": "function"
    },
    {
      "inputs": [
        {
          "internalType": "address",
          "name": "recipient",
          "type": "address"
        },
        {
          "internalType": "uint256",
          "name": "eventId",
          "type": "uint256"
        },
        {
          "internalType": "string",
          "name": "tokenURI",
          "type": "string"
        }
      ],
      "name": "mintWithTokenURI",
      "outputs": [
        {
          "internalType": "uint256",
          "name": "",
          "type": "uint256"
        }
      ],
      "stateMutability": "payable",
      "type": "function"
    },
    {
      "inputs": [],
      "name": "name",
      "outputs": [
        {
          "internalType": "string",
          "name": "",
          "type": "string"
        }
      ],
      "stateMutability": "view",
      "type": "function"
    },
    {
      "inputs": [],
      "name": "owner",
      "outputs": [
        {
          "internalType": "address",
          "name": "",
          "type": "address"
        }
      ],
      "stateMutability": "view",
      "type": "function"
    },
    {
      "inputs": [
        {
          "internalType": "uint256",
          "name": "tokenId",
          "type": "uint256"
        }
      ],
      "name": "ownerOf",
      "outputs": [
        {
          "internalType": "address",
          "name": "",
          "type": "address"
        }
      ],
      "stateMutability": "view",
      "type": "function"
    },
    {
      "inputs": [],
      "name": "renounceOwnership",
      "outputs": [],
      "stateMutability": "nonpayable",
      "type": "function"
    },
    {
      "inputs": [
        {
          "internalType": "address",
          "name": "from",
          "type": "address"
        },
        {
          "internalType": "address",
          "name": "to",
          "type": "address"
        },
        {
          "internalType": "uint256",
          "name": "tokenId",
          "type": "uint256"
        }
      ],
      "name": "safeTransferFrom",
      "outputs": [],
      "stateMutability": "nonpayable",
      "type": "function"
    },
    {
      "inputs": [
        {
          "internalType": "address",
          "name": "from",
          "type": "address"
        },
        {
          "internalType": "address",
          "name": "to",
          "type": "address"
        },
        {
          "internalType": "uint256",
          "name": "tokenId",
          "type": "uint256"
        },
        {
          "internalType": "bytes",
          "name": "data",
          "type": "bytes"
        }
      ],
      "name": "safeTransferFrom",
      "outputs": [],
      "stateMutability": "nonpayable",
      "type": "function"
    },
    {
      "inputs": [
        {
          "internalType": "address",
          "name": "operator",
          "type": "address"
        },
        {
          "internalType": "bool",
          "name": "approved",
          "type": "bool"
        }
      ],
      "name": "setApprovalForAll",
      "outputs": [],
      "stateMutability": "nonpayable",
      "type": "function"
    },
    {
      "inputs": [
        {
          "internalType": "string",
          "name": "_collectionURI",
          "type": "string"
        }
      ],
      "name": "setCollectionURI",
      "outputs": [],
      "stateMutability": "nonpayable",
      "type": "function"
    },
    {
      "inputs": [
        {
          "internalType": "bytes4",
          "name": "interfaceId",
          "type": "bytes4"
        }
      ],
      "name": "supportsInterface",
      "outputs": [
        {
          "internalType": "bool",
          "name": "",
          "type": "bool"
        }
      ],
      "stateMutability": "view",
      "type": "function"
    },
    {
      "inputs": [],
      "name": "symbol",
      "outputs": [
        {
          "internalType": "string",
          "name": "",
          "type": "string"
        }
      ],
      "stateMutability": "view",
      "type": "function"
    },
    {
      "inputs": [
        {
          "internalType": "uint256",
          "name": "tokenId",
          "type": "uint256"
        }
      ],
      "name": "tokenURI",
      "outputs": [
        {
          "internalType": "string",
          "name": "",
          "type": "string"
        }
      ],
      "stateMutability": "view",
      "type": "function"
    },
    {
      "inputs": [
        {
          "internalType": "address",
          "name": "from",
          "type": "address"
        },
        {
          "internalType": "address",
          "name": "to",
          "type": "address"
        },
        {
          "internalType": "uint256",
          "name": "tokenId",
          "type": "uint256"
        }
      ],
      "name": "transferFrom",
      "outputs": [],
      "stateMutability": "nonpayable",
      "type": "function"
    },
    {
      "inputs": [
        {
          "internalType": "address",
          "name": "newOwner",
          "type": "address"
        }
      ],
      "name": "transferOwnership",
      "outputs": [],
      "stateMutability": "nonpayable",
      "type": "function"
    }
  ],
  "bytecode": "0x60806040523480156200001157600080fd5b506040518060400160405280601081526020017f5469786f2050726f746f636f6c207631000000000000000000000000000000008152506040518060400160405280600481526020017f5449584f0000000000000000000000000000000000000000000000000000000081525081600090816200008f919062000412565b508060019081620000a1919062000412565b505050620000c4620000b8620000ca60201b60201c565b620000d260201b60201c565b620004f9565b600033905090565b6000600760009054906101000a900473ffffffffffffffffffffffffffffffffffffffff16905081600760006101000a81548173ffffffffffffffffffffffffffffffffffffffff021916908373ffffffffffffffffffffffffffffffffffffffff1602179055508173ffffffffffffffffffffffffffffffffffffffff168173ffffffffffffffffffffffffffffffffffffffff167f8be0079c531659141344cd1fd0a4f28419497f9722a3daafe3b4186f6b6457e060405160405180910390a35050565b600081519050919050565b7f4e487b7100000000000000000000000000000000000000000000000000000000600052604160045260246000fd5b7f4e487b7100000000000000000000000000000000000000000000000000000000600052602260045260246000fd5b600060028204905060018216806200021a57607f821691505b60208210810362000230576200022f620001d2565b5b50919050565b60008190508160005260206000209050919050565b60006020601f8301049050919050565b600082821b905092915050565b6000600883026200029a7fffffffffffffffffffffffffffffffffffffffffffffffffffffffffffffffff826200025b565b620002a686836200025b565b95508019841693508086168417925050509392505050565b6000819050919050565b6000819050919050565b6000620002f3620002ed620002e784620002be565b620002c8565b620002be565b9050919050565b6000819050919050565b6200030f83620002d2565b620003276200031e82620002fa565b84845462000268565b825550505050565b600090565b6200033e6200032f565b6200034b81848462000304565b505050565b5b8181101562000373576200036760008262000334565b60018101905062000351565b5050565b601f821115620003c2576200038c8162000236565b62000397846200024b565b81016020851015620003a7578190505b620003bf620003b6856200024b565b83018262000350565b50505b505050565b600082821c905092915050565b6000620003e760001984600802620003c7565b1980831691505092915050565b6000620004028383620003d4565b9150826002028217905092915050565b6200041d8262000198565b67ffffffffffffffff811115620004395762000438620001a3565b5b62000445825462000201565b6200045282828562000377565b600060209050601f8311600181146200048a576000841562000475578287015190505b620004818582620003f4565b865550620004f1565b601f1984166200049a8662000236565b60005b82811015620004c4578489015182556001820191506020850194506020810190506200049d565b86831015620004e45784890151620004e0601f891682620003d4565b8355505b6001600288020188555050505b505050505050565b613ab380620005096000396000f3fe6080604052600436106101665760003560e01c8063790c0125116100d1578063c7201b151161008a578063e985e9c511610064578063e985e9c514610555578063f06fc96114610592578063f2fde38b146105cf578063fe210f69146105f857610166565b8063c7201b15146104b0578063c87b56dd146104ed578063cfb5bb1f1461052a57610166565b8063790c0125146103a05780638da5cb5b146103dd57806395d89b4114610408578063a22cb46514610433578063a5097ebf1461045c578063b88d4fde1461048757610166565b806342842e0e1161012357806342842e0e1461028b578063478b9a1f146102b457806350bb4e7f146102df5780636352211e1461030f57806370a082311461034c578063715018a61461038957610166565b806301ffc9a71461016b57806306fdde03146101a8578063081812fc146101d3578063095ea7b31461021057806323b872dd146102395780632639f46014610262575b600080fd5b34801561017757600080fd5b50610192600480360381019061018d919061252a565b610635565b60405161019f9190612572565b60405180910390f35b3480156101b457600080fd5b506101bd610696565b6040516101ca919061261d565b60405180910390f35b3480156101df57600080fd5b506101fa60048036038101906101f59190612675565b610728565b60405161020791906126e3565b60405180910390f35b34801561021c57600080fd5b506102376004803603810190610232919061272a565b61076e565b005b34801561024557600080fd5b50610260600480360381019061025b919061276a565b610885565b005b34801561026e57600080fd5b50610289600480360381019061028491906128f2565b6108e5565b005b34801561029757600080fd5b506102b260048036038101906102ad919061276a565b610938565b005b3480156102c057600080fd5b506102c9610958565b6040516102d6919061294a565b60405180910390f35b6102f960048036038101906102f49190612965565b610969565b604051610306919061294a565b60405180910390f35b34801561031b57600080fd5b5061033660048036038101906103319190612675565b610bbc565b60405161034391906126e3565b60405180910390f35b34801561035857600080fd5b50610373600480360381019061036e91906129d4565b610c42565b604051610380919061294a565b60405180910390f35b34801561039557600080fd5b5061039e610cf9565b005b3480156103ac57600080fd5b506103c760048036038101906103c29190612a01565b610d0d565b6040516103d4919061294a565b60405180910390f35b3480156103e957600080fd5b506103f2610e34565b6040516103ff91906126e3565b60405180910390f35b34801561041457600080fd5b5061041d610e5e565b60405161042a919061261d565b60405180910390f35b34801561043f57600080fd5b5061045a60048036038101906104559190612a6d565b610ef0565b005b34801561046857600080fd5b50610471610f06565b60405161047e919061261d565b60405180910390f35b34801561049357600080fd5b506104ae60048036038101906104a99190612b4e565b610f94565b005b3480156104bc57600080fd5b506104d760048036038101906104d29190612675565b610ff6565b6040516104e4919061294a565b60405180910390f35b3480156104f957600080fd5b50610514600480360381019061050f9190612675565b611066565b604051610521919061261d565b60405180910390f35b34801561053657600080fd5b5061053f611178565b60405161054c919061261d565b60405180910390f35b34801561056157600080fd5b5061057c60048036038101906105779190612bd1565b61120a565b6040516105899190612572565b60405180910390f35b34801561059e57600080fd5b506105b960048036038101906105b49190612675565b61129e565b6040516105c6919061294a565b60405180910390f35b3480156105db57600080fd5b506105f660048036038101906105f191906129d4565b611307565b005b34801561060457600080fd5b5061061f600480360381019061061a9190612675565b61138a565b60405161062c91906126e3565b60405180910390f35b6000634906490660e01b7bffffffffffffffffffffffffffffffffffffffffffffffffffffffff1916827bffffffffffffffffffffffffffffffffffffffffffffffffffffffff1916148061068f575061068e82611413565b5b9050919050565b6060600080546106a590612c40565b80601f01602080910402602001604051908101604052809291908181526020018280546106d190612c40565b801561071e5780601f106106f35761010080835404028352916020019161071e565b820191906000526020600020905b81548152906001019060200180831161070157829003601f168201915b5050505050905090565b6000610733826114f5565b6004600083815260200190815260200160002060009054906101000a900473ffffffffffffffffffffffffffffffffffffffff169050919050565b600061077982610bbc565b90508073ffffffffffffffffffffffffffffffffffffffff168373ffffffffffffffffffffffffffffffffffffffff16036107e9576040517f08c379a00000000000000000000000000000000000000000000000000000000081526004016107e090612ce3565b60405180910390fd5b8073ffffffffffffffffffffffffffffffffffffffff16610808611540565b73ffffffffffffffffffffffffffffffffffffffff161480610837575061083681610831611540565b61120a565b5b610876576040517f08c379a000000000000000000000000000000000000000000000000000000000815260040161086d90612d75565b60405180910390fd5b6108808383611548565b505050565b610896610890611540565b82611601565b6108d5576040517f08c379a00000000000000000000000000000000000000000000000000000000081526004016108cc90612e07565b60405180910390fd5b6108e0838383611696565b505050565b6108ed61198f565b80600d90816108fc9190612fd3565b507f88200832d1fe27eee076bea36a10a1eb73b9d27d9e6e5e2626a83d62ffc9ae5c600d60405161092d9190613129565b60405180910390a150565b61095383838360405180602001604052806000815250610f94565b505050565b60006109646008611a0d565b905090565b60006109756008611a0d565b8311156109b7576040517f08c379a00000000000000000000000000000000000000000000000000000000081526004016109ae90613197565b60405180910390fd5b600a6000848152602001908152602001600020543414610a0c576040517f08c379a0000000000000000000000000000000000000000000000000000000008152600401610a0390613203565b60405180910390fd5b600b600084815260200190815260200160002054610a3b60096000868152602001908152602001600020611a0d565b10610a7b576040517f08c379a0000000000000000000000000000000000000000000000000000000008152600401610a7290613295565b60405180910390fd5b610a9660096000858152602001908152602001600020611a1b565b6000610ab360096000868152602001908152602001600020611a0d565b9050600081620186a086610ac791906132e4565b610ad19190613326565b9050610add8682611a31565b610ae78185611c4e565b600c600086815260200190815260200160002060009054906101000a900473ffffffffffffffffffffffffffffffffffffffff1673ffffffffffffffffffffffffffffffffffffffff166108fc349081150290604051600060405180830381858888f19350505050158015610b60573d6000803e3d6000fd5b50848673ffffffffffffffffffffffffffffffffffffffff167f5c1c9352d51031acc9a558d7cdcca15b0ce5fe4f46d7315cca355248175b0a3783604051610ba8919061294a565b60405180910390a380925050509392505050565b600080610bc883611cf2565b9050600073ffffffffffffffffffffffffffffffffffffffff168173ffffffffffffffffffffffffffffffffffffffff1603610c39576040517f08c379a0000000000000000000000000000000000000000000000000000000008152600401610c30906133a6565b60405180910390fd5b80915050919050565b60008073ffffffffffffffffffffffffffffffffffffffff168273ffffffffffffffffffffffffffffffffffffffff1603610cb2576040517f08c379a0000000000000000000000000000000000000000000000000000000008152600401610ca990613438565b60405180910390fd5b600360008373ffffffffffffffffffffffffffffffffffffffff1673ffffffffffffffffffffffffffffffffffffffff168152602001908152602001600020549050919050565b610d0161198f565b610d0b6000611d2f565b565b6000610d196008611a1b565b6000610d256008611a0d565b905060405180602001604052806000815250600960008381526020019081526020016000206000820151816000015590505083600a60008381526020019081526020016000208190555082600b60008381526020019081526020016000208190555033600c600083815260200190815260200160002060006101000a81548173ffffffffffffffffffffffffffffffffffffffff021916908373ffffffffffffffffffffffffffffffffffffffff1602179055503373ffffffffffffffffffffffffffffffffffffffff16817f103cb41b8f71ac21b5792e993d472e727310a4470d9dde993d890f0634780cf18686604051610e22929190613458565b60405180910390a38091505092915050565b6000600760009054906101000a900473ffffffffffffffffffffffffffffffffffffffff16905090565b606060018054610e6d90612c40565b80601f0160208091040260200160405190810160405280929190818152602001828054610e9990612c40565b8015610ee65780601f10610ebb57610100808354040283529160200191610ee6565b820191906000526020600020905b815481529060010190602001808311610ec957829003601f168201915b5050505050905090565b610f02610efb611540565b8383611df5565b5050565b600d8054610f1390612c40565b80601f0160208091040260200160405190810160405280929190818152602001828054610f3f90612c40565b8015610f8c5780601f10610f6157610100808354040283529160200191610f8c565b820191906000526020600020905b815481529060010190602001808311610f6f57829003601f168201915b505050505081565b610fa5610f9f611540565b83611601565b610fe4576040517f08c379a0000000000000000000000000000000000000000000000000000000008152600401610fdb90612e07565b60405180910390fd5b610ff084848484611f61565b50505050565b60006110026008611a0d565b821115611044576040517f08c379a000000000000000000000000000000000000000000000000000000000815260040161103b90613197565b60405180910390fd5b61105f60096000848152602001908152602001600020611a0d565b9050919050565b6060611071826114f5565b600060066000848152602001908152602001600020805461109190612c40565b80601f01602080910402602001604051908101604052809291908181526020018280546110bd90612c40565b801561110a5780601f106110df5761010080835404028352916020019161110a565b820191906000526020600020905b8154815290600101906020018083116110ed57829003601f168201915b50505050509050600061111b611fbd565b90506000815103611130578192505050611173565b60008251111561116557808260405160200161114d9291906134bd565b60405160208183030381529060405292505050611173565b61116e84611fd4565b925050505b919050565b6060600d805461118790612c40565b80601f01602080910402602001604051908101604052809291908181526020018280546111b390612c40565b80156112005780601f106111d557610100808354040283529160200191611200565b820191906000526020600020905b8154815290600101906020018083116111e357829003601f168201915b5050505050905090565b6000600560008473ffffffffffffffffffffffffffffffffffffffff1673ffffffffffffffffffffffffffffffffffffffff16815260200190815260200160002060008373ffffffffffffffffffffffffffffffffffffffff1673ffffffffffffffffffffffffffffffffffffffff16815260200190815260200160002060009054906101000a900460ff16905092915050565b60006112aa6008611a0d565b8211156112ec576040517f08c379a00000000000000000000000000000000000000000000000000000000081526004016112e390613197565b60405180910390fd5b600a6000838152602001908152602001600020549050919050565b61130f61198f565b600073ffffffffffffffffffffffffffffffffffffffff168173ffffffffffffffffffffffffffffffffffffffff160361137e576040517f08c379a000000000000000000000000000000000000000000000000000000000815260040161137590613553565b60405180910390fd5b61138781611d2f565b50565b60006113966008611a0d565b8211156113d8576040517f08c379a00000000000000000000000000000000000000000000000000000000081526004016113cf90613197565b60405180910390fd5b600c600083815260200190815260200160002060009054906101000a900473ffffffffffffffffffffffffffffffffffffffff169050919050565b60007f80ac58cd000000000000000000000000000000000000000000000000000000007bffffffffffffffffffffffffffffffffffffffffffffffffffffffff1916827bffffffffffffffffffffffffffffffffffffffffffffffffffffffff191614806114de57507f5b5e139f000000000000000000000000000000000000000000000000000000007bffffffffffffffffffffffffffffffffffffffffffffffffffffffff1916827bffffffffffffffffffffffffffffffffffffffffffffffffffffffff1916145b806114ee57506114ed8261203c565b5b9050919050565b6114fe816120a6565b61153d576040517f08c379a0000000000000000000000000000000000000000000000000000000008152600401611534906133a6565b60405180910390fd5b50565b600033905090565b816004600083815260200190815260200160002060006101000a81548173ffffffffffffffffffffffffffffffffffffffff021916908373ffffffffffffffffffffffffffffffffffffffff160217905550808273ffffffffffffffffffffffffffffffffffffffff166115bb83610bbc565b73ffffffffffffffffffffffffffffffffffffffff167f8c5be1e5ebec7d5bd14f71427d1e84f3dd0314c0f7b2291e5b200ac8c7c3b92560405160405180910390a45050565b60008061160d83610bbc565b90508073ffffffffffffffffffffffffffffffffffffffff168473ffffffffffffffffffffffffffffffffffffffff16148061164f575061164e818561120a565b5b8061168d57508373ffffffffffffffffffffffffffffffffffffffff1661167584610728565b73ffffffffffffffffffffffffffffffffffffffff16145b91505092915050565b8273ffffffffffffffffffffffffffffffffffffffff166116b682610bbc565b73ffffffffffffffffffffffffffffffffffffffff161461170c576040517f08c379a0000000000000000000000000000000000000000000000000000000008152600401611703906135e5565b60405180910390fd5b600073ffffffffffffffffffffffffffffffffffffffff168273ffffffffffffffffffffffffffffffffffffffff160361177b576040517f08c379a000000000000000000000000000000000000000000000000000000000815260040161177290613677565b60405180910390fd5b61178883838360016120e7565b8273ffffffffffffffffffffffffffffffffffffffff166117a882610bbc565b73ffffffffffffffffffffffffffffffffffffffff16146117fe576040517f08c379a00000000000000000000000000000000000000000000000000000000081526004016117f5906135e5565b60405180910390fd5b6004600082815260200190815260200160002060006101000a81549073ffffffffffffffffffffffffffffffffffffffff02191690556001600360008573ffffffffffffffffffffffffffffffffffffffff1673ffffffffffffffffffffffffffffffffffffffff168152602001908152602001600020600082825403925050819055506001600360008473ffffffffffffffffffffffffffffffffffffffff1673ffffffffffffffffffffffffffffffffffffffff16815260200190815260200160002060008282540192505081905550816002600083815260200190815260200160002060006101000a81548173ffffffffffffffffffffffffffffffffffffffff021916908373ffffffffffffffffffffffffffffffffffffffff160217905550808273ffffffffffffffffffffffffffffffffffffffff168473ffffffffffffffffffffffffffffffffffffffff167fddf252ad1be2c89b69c2b068fc378daa952ba7f163c4a11628f55a4df523b3ef60405160405180910390a461198a83838360016120ed565b505050565b611997611540565b73ffffffffffffffffffffffffffffffffffffffff166119b5610e34565b73ffffffffffffffffffffffffffffffffffffffff1614611a0b576040517f08c379a0000000000000000000000000000000000000000000000000000000008152600401611a02906136e3565b60405180910390fd5b565b600081600001549050919050565b6001816000016000828254019250508190555050565b600073ffffffffffffffffffffffffffffffffffffffff168273ffffffffffffffffffffffffffffffffffffffff1603611aa0576040517f08c379a0000000000000000000000000000000000000000000000000000000008152600401611a979061374f565b60405180910390fd5b611aa9816120a6565b15611ae9576040517f08c379a0000000000000000000000000000000000000000000000000000000008152600401611ae0906137bb565b60405180910390fd5b611af76000838360016120e7565b611b00816120a6565b15611b40576040517f08c379a0000000000000000000000000000000000000000000000000000000008152600401611b37906137bb565b60405180910390fd5b6001600360008473ffffffffffffffffffffffffffffffffffffffff1673ffffffffffffffffffffffffffffffffffffffff16815260200190815260200160002060008282540192505081905550816002600083815260200190815260200160002060006101000a81548173ffffffffffffffffffffffffffffffffffffffff021916908373ffffffffffffffffffffffffffffffffffffffff160217905550808273ffffffffffffffffffffffffffffffffffffffff16600073ffffffffffffffffffffffffffffffffffffffff167fddf252ad1be2c89b69c2b068fc378daa952ba7f163c4a11628f55a4df523b3ef60405160405180910390a4611c4a6000838360016120ed565b5050565b611c57826120a6565b611c96576040517f08c379a0000000000000000000000000000000000000000000000000000000008152600401611c8d9061384d565b60405180910390fd5b80600660008481526020019081526020016000209081611cb69190612fd3565b507ff8e1a15aba9398e019f0b49df1a4fde98ee17ae345cb5f6b5e2c27f5033e8ce782604051611ce6919061294a565b60405180910390a15050565b60006002600083815260200190815260200160002060009054906101000a900473ffffffffffffffffffffffffffffffffffffffff169050919050565b6000600760009054906101000a900473ffffffffffffffffffffffffffffffffffffffff16905081600760006101000a81548173ffffffffffffffffffffffffffffffffffffffff021916908373ffffffffffffffffffffffffffffffffffffffff1602179055508173ffffffffffffffffffffffffffffffffffffffff168173ffffffffffffffffffffffffffffffffffffffff167f8be0079c531659141344cd1fd0a4f28419497f9722a3daafe3b4186f6b6457e060405160405180910390a35050565b8173ffffffffffffffffffffffffffffffffffffffff168373ffffffffffffffffffffffffffffffffffffffff1603611e63576040517f08c379a0000000000000000000000000000000000000000000000000000000008152600401611e5a906138b9565b60405180910390fd5b80600560008573ffffffffffffffffffffffffffffffffffffffff1673ffffffffffffffffffffffffffffffffffffffff16815260200190815260200160002060008473ffffffffffffffffffffffffffffffffffffffff1673ffffffffffffffffffffffffffffffffffffffff16815260200190815260200160002060006101000a81548160ff0219169083151502179055508173ffffffffffffffffffffffffffffffffffffffff168373ffffffffffffffffffffffffffffffffffffffff167f17307eab39ab6107e8899845ad3d59bd9653f200f220920489ca2b5937696c3183604051611f549190612572565b60405180910390a3505050565b611f6c848484611696565b611f78848484846120f3565b611fb7576040517f08c379a0000000000000000000000000000000000000000000000000000000008152600401611fae9061394b565b60405180910390fd5b50505050565b606060405180602001604052806000815250905090565b6060611fdf826114f5565b6000611fe9611fbd565b905060008151116120095760405180602001604052806000815250612034565b806120138461227a565b6040516020016120249291906134bd565b6040516020818303038152906040525b915050919050565b60007f01ffc9a7000000000000000000000000000000000000000000000000000000007bffffffffffffffffffffffffffffffffffffffffffffffffffffffff1916827bffffffffffffffffffffffffffffffffffffffffffffffffffffffff1916149050919050565b60008073ffffffffffffffffffffffffffffffffffffffff166120c883611cf2565b73ffffffffffffffffffffffffffffffffffffffff1614159050919050565b50505050565b50505050565b60006121148473ffffffffffffffffffffffffffffffffffffffff16612348565b1561226d578373ffffffffffffffffffffffffffffffffffffffff1663150b7a0261213d611540565b8786866040518563ffffffff1660e01b815260040161215f94939291906139c0565b6020604051808303816000875af192505050801561219b57506040513d601f19601f820116820180604052508101906121989190613a21565b60015b61221d573d80600081146121cb576040519150601f19603f3d011682016040523d82523d6000602084013e6121d0565b606091505b506000815103612215576040517f08c379a000000000000000000000000000000000000000000000000000000000815260040161220c9061394b565b60405180910390fd5b805181602001fd5b63150b7a0260e01b7bffffffffffffffffffffffffffffffffffffffffffffffffffffffff1916817bffffffffffffffffffffffffffffffffffffffffffffffffffffffff191614915050612272565b600190505b949350505050565b6060600060016122898461236b565b01905060008167ffffffffffffffff8111156122a8576122a76127c7565b5b6040519080825280601f01601f1916602001820160405280156122da5781602001600182028036833780820191505090505b509050600082602001820190505b60011561233d578080600190039150507f3031323334353637383961626364656600000000000000000000000000000000600a86061a8153600a858161233157612330613a4e565b5b049450600085036122e8575b819350505050919050565b6000808273ffffffffffffffffffffffffffffffffffffffff163b119050919050565b600080600090507a184f03e93ff9f4daa797ed6e38ed64bf6a1f01000000000000000083106123c9577a184f03e93ff9f4daa797ed6e38ed64bf6a1f01000000000000000083816123bf576123be613a4e565b5b0492506040810190505b6d04ee2d6d415b85acef81000000008310612406576d04ee2d6d415b85acef810000000083816123fc576123fb613a4e565b5b0492506020810190505b662386f26fc10000831061243557662386f26fc10000838161242b5761242a613a4e565b5b0492506010810190505b6305f5e100831061245e576305f5e100838161245457612453613a4e565b5b0492506008810190505b612710831061248357612710838161247957612478613a4e565b5b0492506004810190505b606483106124a6576064838161249c5761249b613a4e565b5b0492506002810190505b600a83106124b5576001810190505b80915050919050565b6000604051905090565b600080fd5b600080fd5b60007fffffffff0000000000000000000000000000000000000000000000000000000082169050919050565b612507816124d2565b811461251257600080fd5b50565b600081359050612524816124fe565b92915050565b6000602082840312156125405761253f6124c8565b5b600061254e84828501612515565b91505092915050565b60008115159050919050565b61256c81612557565b82525050565b60006020820190506125876000830184612563565b92915050565b600081519050919050565b600082825260208201905092915050565b60005b838110156125c75780820151818401526020810190506125ac565b60008484015250505050565b6000601f19601f8301169050919050565b60006125ef8261258d565b6125f98185612598565b93506126098185602086016125a9565b612612816125d3565b840191505092915050565b6000602082019050818103600083015261263781846125e4565b905092915050565b6000819050919050565b6126528161263f565b811461265d57600080fd5b50565b60008135905061266f81612649565b92915050565b60006020828403121561268b5761268a6124c8565b5b600061269984828501612660565b91505092915050565b600073ffffffffffffffffffffffffffffffffffffffff82169050919050565b60006126cd826126a2565b9050919050565b6126dd816126c2565b82525050565b60006020820190506126f860008301846126d4565b92915050565b612707816126c2565b811461271257600080fd5b50565b600081359050612724816126fe565b92915050565b60008060408385031215612741576127406124c8565b5b600061274f85828601612715565b925050602061276085828601612660565b9150509250929050565b600080600060608486031215612783576127826124c8565b5b600061279186828701612715565b93505060206127a286828701612715565b92505060406127b386828701612660565b9150509250925092565b600080fd5b600080fd5b7f4e487b7100000000000000000000000000000000000000000000000000000000600052604160045260246000fd5b6127ff826125d3565b810181811067ffffffffffffffff8211171561281e5761281d6127c7565b5b80604052505050565b60006128316124be565b905061283d82826127f6565b919050565b600067ffffffffffffffff82111561285d5761285c6127c7565b5b612866826125d3565b9050602081019050919050565b82818337600083830152505050565b600061289561289084612842565b612827565b9050828152602081018484840111156128b1576128b06127c2565b5b6128bc848285612873565b509392505050565b600082601f8301126128d9576128d86127bd565b5b81356128e9848260208601612882565b91505092915050565b600060208284031215612908576129076124c8565b5b600082013567ffffffffffffffff811115612926576129256124cd565b5b612932848285016128c4565b91505092915050565b6129448161263f565b82525050565b600060208201905061295f600083018461293b565b92915050565b60008060006060848603121561297e5761297d6124c8565b5b600061298c86828701612715565b935050602061299d86828701612660565b925050604084013567ffffffffffffffff8111156129be576129bd6124cd565b5b6129ca868287016128c4565b9150509250925092565b6000602082840312156129ea576129e96124c8565b5b60006129f884828501612715565b91505092915050565b60008060408385031215612a1857612a176124c8565b5b6000612a2685828601612660565b9250506020612a3785828601612660565b9150509250929050565b612a4a81612557565b8114612a5557600080fd5b50565b600081359050612a6781612a41565b92915050565b60008060408385031215612a8457612a836124c8565b5b6000612a9285828601612715565b9250506020612aa385828601612a58565b9150509250929050565b600067ffffffffffffffff821115612ac857612ac76127c7565b5b612ad1826125d3565b9050602081019050919050565b6000612af1612aec84612aad565b612827565b905082815260208101848484011115612b0d57612b0c6127c2565b5b612b18848285612873565b509392505050565b600082601f830112612b3557612b346127bd565b5b8135612b45848260208601612ade565b91505092915050565b60008060008060808587031215612b6857612b676124c8565b5b6000612b7687828801612715565b9450506020612b8787828801612715565b9350506040612b9887828801612660565b925050606085013567ffffffffffffffff811115612bb957612bb86124cd565b5b612bc587828801612b20565b91505092959194509250565b60008060408385031215612be857612be76124c8565b5b6000612bf685828601612715565b9250506020612c0785828601612715565b9150509250929050565b7f4e487b7100000000000000000000000000000000000000000000000000000000600052602260045260246000fd5b60006002820490506001821680612c5857607f821691505b602082108103612c6b57612c6a612c11565b5b50919050565b7f4552433732313a20617070726f76616c20746f2063757272656e74206f776e6560008201527f7200000000000000000000000000000000000000000000000000000000000000602082015250565b6000612ccd602183612598565b9150612cd882612c71565b604082019050919050565b60006020820190508181036000830152612cfc81612cc0565b9050919050565b7f4552433732313a20617070726f76652063616c6c6572206973206e6f7420746f60008201527f6b656e206f776e6572206f7220617070726f76656420666f7220616c6c000000602082015250565b6000612d5f603d83612598565b9150612d6a82612d03565b604082019050919050565b60006020820190508181036000830152612d8e81612d52565b9050919050565b7f4552433732313a2063616c6c6572206973206e6f7420746f6b656e206f776e6560008201527f72206f7220617070726f76656400000000000000000000000000000000000000602082015250565b6000612df1602d83612598565b9150612dfc82612d95565b604082019050919050565b60006020820190508181036000830152612e2081612de4565b9050919050565b60008190508160005260206000209050919050565b60006020601f8301049050919050565b600082821b905092915050565b600060088302612e897fffffffffffffffffffffffffffffffffffffffffffffffffffffffffffffffff82612e4c565b612e938683612e4c565b95508019841693508086168417925050509392505050565b6000819050919050565b6000612ed0612ecb612ec68461263f565b612eab565b61263f565b9050919050565b6000819050919050565b612eea83612eb5565b612efe612ef682612ed7565b848454612e59565b825550505050565b600090565b612f13612f06565b612f1e818484612ee1565b505050565b5b81811015612f4257612f37600082612f0b565b600181019050612f24565b5050565b601f821115612f8757612f5881612e27565b612f6184612e3c565b81016020851015612f70578190505b612f84612f7c85612e3c565b830182612f23565b50505b505050565b600082821c905092915050565b6000612faa60001984600802612f8c565b1980831691505092915050565b6000612fc38383612f99565b9150826002028217905092915050565b612fdc8261258d565b67ffffffffffffffff811115612ff557612ff46127c7565b5b612fff8254612c40565b61300a828285612f46565b600060209050601f83116001811461303d576000841561302b578287015190505b6130358582612fb7565b86555061309d565b601f19841661304b86612e27565b60005b828110156130735784890151825560018201915060208501945060208101905061304e565b86831015613090578489015161308c601f891682612f99565b8355505b6001600288020188555050505b505050505050565b600081546130b281612c40565b6130bc8186612598565b945060018216600081146130d757600181146130ed57613120565b60ff198316865281151560200286019350613120565b6130f685612e27565b60005b83811015613118578154818901526001820191506020810190506130f9565b808801955050505b50505092915050565b6000602082019050818103600083015261314381846130a5565b905092915050565b7f4576656e7420646f6573206e6f74206578697374000000000000000000000000600082015250565b6000613181601483612598565b915061318c8261314b565b602082019050919050565b600060208201905081810360008301526131b081613174565b9050919050565b7f496e636f7272656374207469636b657420707269636500000000000000000000600082015250565b60006131ed601683612598565b91506131f8826131b7565b602082019050919050565b6000602082019050818103600083015261321c816131e0565b9050919050565b7f416c6c207469636b65747320666f722074686973206576656e7420686176652060008201527f6265656e206d696e746564000000000000000000000000000000000000000000602082015250565b600061327f602b83612598565b915061328a82613223565b604082019050919050565b600060208201905081810360008301526132ae81613272565b9050919050565b7f4e487b7100000000000000000000000000000000000000000000000000000000600052601160045260246000fd5b60006132ef8261263f565b91506132fa8361263f565b92508282026133088161263f565b9150828204841483151761331f5761331e6132b5565b5b5092915050565b60006133318261263f565b915061333c8361263f565b9250828201905080821115613354576133536132b5565b5b92915050565b7f4552433732313a20696e76616c696420746f6b656e2049440000000000000000600082015250565b6000613390601883612598565b915061339b8261335a565b602082019050919050565b600060208201905081810360008301526133bf81613383565b9050919050565b7f4552433732313a2061646472657373207a65726f206973206e6f74206120766160008201527f6c6964206f776e65720000000000000000000000000000000000000000000000602082015250565b6000613422602983612598565b915061342d826133c6565b604082019050919050565b6000602082019050818103600083015261345181613415565b9050919050565b600060408201905061346d600083018561293b565b61347a602083018461293b565b9392505050565b600081905092915050565b60006134978261258d565b6134a18185613481565b93506134b18185602086016125a9565b80840191505092915050565b60006134c9828561348c565b91506134d5828461348c565b91508190509392505050565b7f4f776e61626c653a206e6577206f776e657220697320746865207a65726f206160008201527f6464726573730000000000000000000000000000000000000000000000000000602082015250565b600061353d602683612598565b9150613548826134e1565b604082019050919050565b6000602082019050818103600083015261356c81613530565b9050919050565b7f4552433732313a207472616e736665722066726f6d20696e636f72726563742060008201527f6f776e6572000000000000000000000000000000000000000000000000000000602082015250565b60006135cf602583612598565b91506135da82613573565b604082019050919050565b600060208201905081810360008301526135fe816135c2565b9050919050565b7f4552433732313a207472616e7366657220746f20746865207a65726f2061646460008201527f7265737300000000000000000000000000000000000000000000000000000000602082015250565b6000613661602483612598565b915061366c82613605565b604082019050919050565b6000602082019050818103600083015261369081613654565b9050919050565b7f4f776e61626c653a2063616c6c6572206973206e6f7420746865206f776e6572600082015250565b60006136cd602083612598565b91506136d882613697565b602082019050919050565b600060208201905081810360008301526136fc816136c0565b9050919050565b7f4552433732313a206d696e7420746f20746865207a65726f2061646472657373600082015250565b6000613739602083612598565b915061374482613703565b602082019050919050565b600060208201905081810360008301526137688161372c565b9050919050565b7f4552433732313a20746f6b656e20616c7265616479206d696e74656400000000600082015250565b60006137a5601c83612598565b91506137b08261376f565b602082019050919050565b600060208201905081810360008301526137d481613798565b9050919050565b7f45524337323155524953746f726167653a2055524920736574206f66206e6f6e60008201527f6578697374656e7420746f6b656e000000000000000000000000000000000000602082015250565b6000613837602e83612598565b9150613842826137db565b604082019050919050565b600060208201905081810360008301526138668161382a565b9050919050565b7f4552433732313a20617070726f766520746f2063616c6c657200000000000000600082015250565b60006138a3601983612598565b91506138ae8261386d565b602082019050919050565b600060208201905081810360008301526138d281613896565b9050919050565b7f4552433732313a207472616e7366657220746f206e6f6e20455243373231526560008201527f63656976657220696d706c656d656e7465720000000000000000000000000000602082015250565b6000613935603283612598565b9150613940826138d9565b604082019050919050565b6000602082019050818103600083015261396481613928565b9050919050565b600081519050919050565b600082825260208201905092915050565b60006139928261396b565b61399c8185613976565b93506139ac8185602086016125a9565b6139b5816125d3565b840191505092915050565b60006080820190506139d560008301876126d4565b6139e260208301866126d4565b6139ef604083018561293b565b8181036060830152613a018184613987565b905095945050505050565b600081519050613a1b816124fe565b92915050565b600060208284031215613a3757613a366124c8565b5b6000613a4584828501613a0c565b91505092915050565b7f4e487b7100000000000000000000000000000000000000000000000000000000600052601260045260246000fdfea26469706673582212208444251fa7428c13cc1e9921b87bd73f35f0c33720c91b034ce6b783d3cbe16264736f6c63430008110033",
  "linkReferences": {},
  "deployedLinkReferences": {}
}